{
  "contractName": "Election",
  "abi": [
    {
      "inputs": [],
      "stateMutability": "nonpayable",
      "type": "constructor"
    },
    {
      "anonymous": false,
      "inputs": [
        {
          "indexed": false,
          "internalType": "uint256",
          "name": "_id",
          "type": "uint256"
        }
      ],
      "name": "electionUpdates",
      "type": "event"
    },
    {
      "inputs": [
        {
          "internalType": "uint256",
          "name": "",
          "type": "uint256"
        }
      ],
      "name": "candidates",
      "outputs": [
        {
          "internalType": "uint256",
          "name": "id",
          "type": "uint256"
        },
        {
          "internalType": "string",
          "name": "name",
          "type": "string"
        },
        {
          "internalType": "string",
          "name": "party",
          "type": "string"
        },
        {
          "internalType": "string",
          "name": "age",
          "type": "string"
        },
        {
          "internalType": "string",
          "name": "description",
          "type": "string"
        },
        {
          "internalType": "string",
          "name": "qualification",
          "type": "string"
        },
        {
          "internalType": "uint256",
          "name": "votecount",
          "type": "uint256"
        }
      ],
      "stateMutability": "view",
      "type": "function",
      "constant": true
    },
    {
      "inputs": [],
      "name": "candidatesCount",
      "outputs": [
        {
          "internalType": "uint256",
          "name": "",
          "type": "uint256"
        }
      ],
      "stateMutability": "view",
      "type": "function",
      "constant": true
    },
    {
      "inputs": [],
      "name": "owner",
      "outputs": [
        {
          "internalType": "address",
          "name": "",
          "type": "address"
        }
      ],
      "stateMutability": "view",
      "type": "function",
      "constant": true
    },
    {
      "inputs": [],
      "name": "phase",
      "outputs": [
        {
          "internalType": "string",
          "name": "",
          "type": "string"
        }
      ],
      "stateMutability": "view",
      "type": "function",
      "constant": true
    },
    {
      "inputs": [
        {
          "internalType": "address",
          "name": "",
          "type": "address"
        }
      ],
      "name": "votedornot",
      "outputs": [
        {
          "internalType": "bool",
          "name": "",
          "type": "bool"
        }
      ],
      "stateMutability": "view",
      "type": "function",
      "constant": true
    },
    {
      "inputs": [
        {
          "internalType": "uint256",
          "name": "",
          "type": "uint256"
        }
      ],
      "name": "voters",
      "outputs": [
        {
          "internalType": "address",
          "name": "",
          "type": "address"
        }
      ],
      "stateMutability": "view",
      "type": "function",
      "constant": true
    },
    {
      "inputs": [],
      "name": "changePhase",
      "outputs": [],
      "stateMutability": "nonpayable",
      "type": "function"
    },
    {
      "inputs": [],
      "name": "getPhase",
      "outputs": [
        {
          "internalType": "string",
          "name": "",
          "type": "string"
        }
      ],
      "stateMutability": "view",
      "type": "function",
      "constant": true
    },
    {
      "inputs": [
        {
          "internalType": "string",
          "name": "_name",
          "type": "string"
        },
        {
          "internalType": "string",
          "name": "_party",
          "type": "string"
        },
        {
          "internalType": "string",
          "name": "_age",
          "type": "string"
        },
        {
          "internalType": "string",
          "name": "_description",
          "type": "string"
        },
        {
          "internalType": "string",
          "name": "_qualification",
          "type": "string"
        }
      ],
      "name": "addCandidate",
      "outputs": [],
      "stateMutability": "nonpayable",
      "type": "function"
    },
    {
      "inputs": [
        {
          "internalType": "uint256",
          "name": "_id",
          "type": "uint256"
        }
      ],
      "name": "removeCanditate",
      "outputs": [],
      "stateMutability": "nonpayable",
      "type": "function"
    },
    {
      "inputs": [
        {
          "internalType": "uint256",
          "name": "_id",
          "type": "uint256"
        }
      ],
      "name": "Vote",
      "outputs": [],
      "stateMutability": "nonpayable",
      "type": "function"
    }
  ],
  "bytecode": "0x60806040523480156200001157600080fd5b5033600460006101000a81548173ffffffffffffffffffffffffffffffffffffffff021916908373ffffffffffffffffffffffffffffffffffffffff1602179055506040518060400160405280600c81526020017f526567697374726174696f6e000000000000000000000000000000000000000081525060059080519060200190620000a0929190620000a7565b50620001bc565b828054620000b59062000157565b90600052602060002090601f016020900481019282620000d9576000855562000125565b82601f10620000f457805160ff191683800117855562000125565b8280016001018555821562000125579182015b828111156200012457825182559160200191906001019062000107565b5b50905062000134919062000138565b5090565b5b808211156200015357600081600090555060010162000139565b5090565b600060028204905060018216806200017057607f821691505b602082108114156200018757620001866200018d565b5b50919050565b7f4e487b7100000000000000000000000000000000000000000000000000000000600052602260045260246000fd5b6115aa80620001cc6000396000f3fe608060405234801561001057600080fd5b50600436106100a95760003560e01c8063945ddfb911610071578063945ddfb91461016c578063b1c9fe6e14610188578063da58c7d9146101a6578063db6f5953146101d6578063dcd6a5cd146101e0578063eced0280146101fc576100a9565b806307240cfb146100ae5780631bc57022146100ca5780632d35a8a2146100fa5780633477ee2e146101185780638da5cb5b1461014e575b600080fd5b6100c860048036038101906100c39190610f67565b61021a565b005b6100e460048036038101906100df9190610e4f565b610323565b6040516100f191906111bc565b60405180910390f35b610102610343565b60405161010f9190611259565b60405180910390f35b610132600480360381019061012d9190610f67565b610349565b6040516101459796959493929190611274565b60405180910390f35b610156610633565b60405161016391906111a1565b60405180910390f35b61018660048036038101906101819190610e78565b610659565b005b6101906107f9565b60405161019d91906111d7565b60405180910390f35b6101c060048036038101906101bb9190610f67565b610887565b6040516101cd91906111a1565b60405180910390f35b6101de6108c6565b005b6101fa60048036038101906101f59190610f67565b610a49565b005b610204610c48565b60405161021191906111d7565b60405180910390f35b600460009054906101000a900473ffffffffffffffffffffffffffffffffffffffff1673ffffffffffffffffffffffffffffffffffffffff163373ffffffffffffffffffffffffffffffffffffffff16146102aa576040517f08c379a00000000000000000000000000000000000000000000000000000000081526004016102a190611239565b60405180910390fd5b600160008281526020019081526020016000206000808201600090556001820160006102d69190610cda565b6002820160006102e69190610cda565b6003820160006102f69190610cda565b6004820160006103069190610cda565b6005820160006103169190610cda565b6006820160009055505050565b60026020528060005260406000206000915054906101000a900460ff1681565b60005481565b60016020528060005260406000206000915090508060000154908060010180546103729061142d565b80601f016020809104026020016040519081016040528092919081815260200182805461039e9061142d565b80156103eb5780601f106103c0576101008083540402835291602001916103eb565b820191906000526020600020905b8154815290600101906020018083116103ce57829003601f168201915b5050505050908060020180546104009061142d565b80601f016020809104026020016040519081016040528092919081815260200182805461042c9061142d565b80156104795780601f1061044e57610100808354040283529160200191610479565b820191906000526020600020905b81548152906001019060200180831161045c57829003601f168201915b50505050509080600301805461048e9061142d565b80601f01602080910402602001604051908101604052809291908181526020018280546104ba9061142d565b80156105075780601f106104dc57610100808354040283529160200191610507565b820191906000526020600020905b8154815290600101906020018083116104ea57829003601f168201915b50505050509080600401805461051c9061142d565b80601f01602080910402602001604051908101604052809291908181526020018280546105489061142d565b80156105955780601f1061056a57610100808354040283529160200191610595565b820191906000526020600020905b81548152906001019060200180831161057857829003601f168201915b5050505050908060050180546105aa9061142d565b80601f01602080910402602001604051908101604052809291908181526020018280546105d69061142d565b80156106235780601f106105f857610100808354040283529160200191610623565b820191906000526020600020905b81548152906001019060200180831161060657829003601f168201915b5050505050908060060154905087565b600460009054906101000a900473ffffffffffffffffffffffffffffffffffffffff1681565b600460009054906101000a900473ffffffffffffffffffffffffffffffffffffffff1673ffffffffffffffffffffffffffffffffffffffff163373ffffffffffffffffffffffffffffffffffffffff16146106e9576040517f08c379a00000000000000000000000000000000000000000000000000000000081526004016106e090611239565b60405180910390fd5b6040518060e00160405280600054815260200186815260200185815260200184815260200183815260200182815260200160008152506001600080548152602001908152602001600020600082015181600001556020820151816001019080519060200190610759929190610d1a565b506040820151816002019080519060200190610776929190610d1a565b506060820151816003019080519060200190610793929190610d1a565b5060808201518160040190805190602001906107b0929190610d1a565b5060a08201518160050190805190602001906107cd929190610d1a565b5060c082015181600601559050506000808154809291906107ed9061145f565b91905055505050505050565b600580546108069061142d565b80601f01602080910402602001604051908101604052809291908181526020018280546108329061142d565b801561087f5780601f106108545761010080835404028352916020019161087f565b820191906000526020600020905b81548152906001019060200180831161086257829003601f168201915b505050505081565b6003818154811061089757600080fd5b906000526020600020016000915054906101000a900473ffffffffffffffffffffffffffffffffffffffff1681565b600460009054906101000a900473ffffffffffffffffffffffffffffffffffffffff1673ffffffffffffffffffffffffffffffffffffffff163373ffffffffffffffffffffffffffffffffffffffff1614610956576040517f08c379a000000000000000000000000000000000000000000000000000000000815260040161094d90611239565b60405180910390fd5b6040516020016109659061118c565b60405160208183030381529060405280519060200120600560405160200161098d9190611175565b6040516020818303038152906040528051906020012014156109fa576040518060400160405280600681526020017f566f74696e670000000000000000000000000000000000000000000000000000815250600590805190602001906109f4929190610d1a565b50610a47565b6040518060400160405280600c81526020017f526567697374726174696f6e000000000000000000000000000000000000000081525060059080519060200190610a45929190610d1a565b505b565b600260003373ffffffffffffffffffffffffffffffffffffffff1673ffffffffffffffffffffffffffffffffffffffff16815260200190815260200160002060009054906101000a900460ff1615610ad6576040517f08c379a0000000000000000000000000000000000000000000000000000000008152600401610acd906111f9565b60405180910390fd5b600081118015610ae857506000548111155b610b27576040517f08c379a0000000000000000000000000000000000000000000000000000000008152600401610b1e90611219565b60405180910390fd5b600160008281526020019081526020016000206006016000815480929190610b4e9061145f565b91905055506003339080600181540180825580915050600190039060005260206000200160009091909190916101000a81548173ffffffffffffffffffffffffffffffffffffffff021916908373ffffffffffffffffffffffffffffffffffffffff1602179055506001600260003373ffffffffffffffffffffffffffffffffffffffff1673ffffffffffffffffffffffffffffffffffffffff16815260200190815260200160002060006101000a81548160ff0219169083151502179055507f559b765eb0812c9a8121fedbcf4cd1ab9c3fb498877e81d8347433eb5f4d617381604051610c3d9190611259565b60405180910390a150565b606060058054610c579061142d565b80601f0160208091040260200160405190810160405280929190818152602001828054610c839061142d565b8015610cd05780601f10610ca557610100808354040283529160200191610cd0565b820191906000526020600020905b815481529060010190602001808311610cb357829003601f168201915b5050505050905090565b508054610ce69061142d565b6000825580601f10610cf85750610d17565b601f016020900490600052602060002090810190610d169190610da0565b5b50565b828054610d269061142d565b90600052602060002090601f016020900481019282610d485760008555610d8f565b82601f10610d6157805160ff1916838001178555610d8f565b82800160010185558215610d8f579182015b82811115610d8e578251825591602001919060010190610d73565b5b509050610d9c9190610da0565b5090565b5b80821115610db9576000816000905550600101610da1565b5090565b6000610dd0610dcb84611337565b611306565b905082815260208101848484011115610de857600080fd5b610df38482856113eb565b509392505050565b600081359050610e0a81611546565b92915050565b600082601f830112610e2157600080fd5b8135610e31848260208601610dbd565b91505092915050565b600081359050610e498161155d565b92915050565b600060208284031215610e6157600080fd5b6000610e6f84828501610dfb565b91505092915050565b600080600080600060a08688031215610e9057600080fd5b600086013567ffffffffffffffff811115610eaa57600080fd5b610eb688828901610e10565b955050602086013567ffffffffffffffff811115610ed357600080fd5b610edf88828901610e10565b945050604086013567ffffffffffffffff811115610efc57600080fd5b610f0888828901610e10565b935050606086013567ffffffffffffffff811115610f2557600080fd5b610f3188828901610e10565b925050608086013567ffffffffffffffff811115610f4e57600080fd5b610f5a88828901610e10565b9150509295509295909350565b600060208284031215610f7957600080fd5b6000610f8784828501610e3a565b91505092915050565b610f99816113a3565b82525050565b610fa8816113b5565b82525050565b6000610fb98261137c565b610fc38185611387565b9350610fd38185602086016113fa565b610fdc81611535565b840191505092915050565b60008154610ff48161142d565b610ffe8186611398565b94506001821660008114611019576001811461102a5761105d565b60ff1983168652818601935061105d565b61103385611367565b60005b8381101561105557815481890152600182019150602081019050611036565b838801955050505b50505092915050565b6000611073601983611387565b91507f596f752043616e204f6e6c7920566f7465204f6e6365212121000000000000006000830152602082019050919050565b60006110b3600c83611398565b91507f526567697374726174696f6e00000000000000000000000000000000000000006000830152600c82019050919050565b60006110f3601483611387565b91507f496e76616c69642043616e6469646174652069640000000000000000000000006000830152602082019050919050565b6000611133601d83611387565b91507f6f6e6c79206f776e65722063616e206164642063616e646964617465730000006000830152602082019050919050565b61116f816113e1565b82525050565b60006111818284610fe7565b915081905092915050565b6000611197826110a6565b9150819050919050565b60006020820190506111b66000830184610f90565b92915050565b60006020820190506111d16000830184610f9f565b92915050565b600060208201905081810360008301526111f18184610fae565b905092915050565b6000602082019050818103600083015261121281611066565b9050919050565b60006020820190508181036000830152611232816110e6565b9050919050565b6000602082019050818103600083015261125281611126565b9050919050565b600060208201905061126e6000830184611166565b92915050565b600060e082019050611289600083018a611166565b818103602083015261129b8189610fae565b905081810360408301526112af8188610fae565b905081810360608301526112c38187610fae565b905081810360808301526112d78186610fae565b905081810360a08301526112eb8185610fae565b90506112fa60c0830184611166565b98975050505050505050565b6000604051905081810181811067ffffffffffffffff8211171561132d5761132c611506565b5b8060405250919050565b600067ffffffffffffffff82111561135257611351611506565b5b601f19601f8301169050602081019050919050565b60008190508160005260206000209050919050565b600081519050919050565b600082825260208201905092915050565b600081905092915050565b60006113ae826113c1565b9050919050565b60008115159050919050565b600073ffffffffffffffffffffffffffffffffffffffff82169050919050565b6000819050919050565b82818337600083830152505050565b60005b838110156114185780820151818401526020810190506113fd565b83811115611427576000848401525b50505050565b6000600282049050600182168061144557607f821691505b60208210811415611459576114586114d7565b5b50919050565b600061146a826113e1565b91507fffffffffffffffffffffffffffffffffffffffffffffffffffffffffffffffff82141561149d5761149c6114a8565b5b600182019050919050565b7f4e487b7100000000000000000000000000000000000000000000000000000000600052601160045260246000fd5b7f4e487b7100000000000000000000000000000000000000000000000000000000600052602260045260246000fd5b7f4e487b7100000000000000000000000000000000000000000000000000000000600052604160045260246000fd5b6000601f19601f8301169050919050565b61154f816113a3565b811461155a57600080fd5b50565b611566816113e1565b811461157157600080fd5b5056fea2646970667358221220a07a277ec163a9dfc14494550aa4e48749406e44e52356a996c6d625d84e107164736f6c63430008000033",
  "immutableReferences": {},
  "source": "// SPDX-License-Identifier: MIT\r\npragma solidity ^0.8.0;\r\ncontract Election{\r\n        \r\n    struct Candidate{\r\n        uint id;\r\n        string name;\r\n        string party;\r\n        string age;\r\n        string description;\r\n        string qualification;\r\n        uint votecount;\r\n    }   \r\n    \r\n    uint public candidatesCount;\r\n    mapping(uint=>Candidate) public candidates;\r\n    mapping(address=>bool) public votedornot;\r\n    address[] public voters;\r\n    address public owner;\r\n    string public phase;\r\n    \r\n    event electionUpdates(uint _id);\r\n    \r\n    constructor(){\r\n         owner = msg.sender;\r\n         phase = 'Registration';\r\n    }\r\n    \r\n    modifier ownerModifier{\r\n        require(msg.sender == owner,\"only owner can add candidates\");\r\n        _;\r\n    }\r\n\r\n    function changePhase() public ownerModifier{\r\n        if( keccak256(abi.encodePacked((phase))) == keccak256(abi.encodePacked('Registration'))    ){\r\n            phase = 'Voting';\r\n        }else{\r\n            phase = 'Registration';\r\n        }\r\n    }\r\n\r\n    function getPhase() public view returns(string memory){\r\n        return phase;\r\n    }\r\n\r\n    function addCandidate(string memory _name ,string memory _party,string memory _age ,string memory _description, string memory _qualification) public ownerModifier{\r\n        candidates[candidatesCount] = Candidate(candidatesCount,_name,_party,_age,_description,_qualification,0);\r\n        candidatesCount++;\r\n    }\r\n    \r\n    function removeCanditate(uint _id) public ownerModifier{\r\n        delete candidates[_id];\r\n    }\r\n    \r\n    function Vote(uint _id) public{\r\n        require(!votedornot[msg.sender],\"You Can Only Vote Once!!!\");\r\n        require(_id>0 && _id<=candidatesCount,\"Invalid Candidate id\");\r\n        candidates[_id].votecount++;\r\n        voters.push(msg.sender);\r\n        votedornot[msg.sender]=true;\r\n        emit electionUpdates(_id);\r\n    }\r\n}",
  "sourcePath": "C:/Users/jyots/design-project-5sem/contracts/Election.sol",
  "compiler": {
    "name": "solc",
    "version": "0.8.0+commit.c7dfd78e.Emscripten.clang"
  },
  "schemaVersion": "3.4.1",
  "updatedAt": "2021-10-27T16:06:26.526Z",
  "networkType": "ethereum",
  "devdoc": {
    "kind": "dev",
    "methods": {},
    "version": 1
  },
  "userdoc": {
    "kind": "user",
    "methods": {},
    "version": 1
  }
}