{
  "contractName": "Election",
  "abi": [
    {
      "inputs": [],
      "stateMutability": "nonpayable",
      "type": "constructor"
    },
    {
      "anonymous": false,
      "inputs": [
        {
          "indexed": false,
          "internalType": "uint256",
          "name": "_id",
          "type": "uint256"
        }
      ],
      "name": "electionUpdates",
      "type": "event"
    },
    {
      "inputs": [],
      "name": "accountindex",
      "outputs": [
        {
          "internalType": "uint256",
          "name": "",
          "type": "uint256"
        }
      ],
      "stateMutability": "view",
      "type": "function",
      "constant": true
    },
    {
      "inputs": [
        {
          "internalType": "uint256",
          "name": "",
          "type": "uint256"
        }
      ],
      "name": "candidates",
      "outputs": [
        {
          "internalType": "uint256",
          "name": "id",
          "type": "uint256"
        },
        {
          "internalType": "string",
          "name": "name",
          "type": "string"
        },
        {
          "internalType": "string",
          "name": "party",
          "type": "string"
        },
        {
          "internalType": "string",
          "name": "age",
          "type": "string"
        },
        {
          "internalType": "string",
          "name": "description",
          "type": "string"
        },
        {
          "internalType": "string",
          "name": "qualification",
          "type": "string"
        },
        {
          "internalType": "uint256",
          "name": "votecount",
          "type": "uint256"
        }
      ],
      "stateMutability": "view",
      "type": "function",
      "constant": true
    },
    {
      "inputs": [],
      "name": "candidatesCount",
      "outputs": [
        {
          "internalType": "uint256",
          "name": "",
          "type": "uint256"
        }
      ],
      "stateMutability": "view",
      "type": "function",
      "constant": true
    },
    {
      "inputs": [],
      "name": "owner",
      "outputs": [
        {
          "internalType": "address",
          "name": "",
          "type": "address"
        }
      ],
      "stateMutability": "view",
      "type": "function",
      "constant": true
    },
    {
      "inputs": [],
      "name": "phase",
      "outputs": [
        {
          "internalType": "string",
          "name": "",
          "type": "string"
        }
      ],
      "stateMutability": "view",
      "type": "function",
      "constant": true
    },
    {
      "inputs": [
        {
          "internalType": "address",
          "name": "",
          "type": "address"
        }
      ],
      "name": "votedornot",
      "outputs": [
        {
          "internalType": "bool",
          "name": "",
          "type": "bool"
        }
      ],
      "stateMutability": "view",
      "type": "function",
      "constant": true
    },
    {
      "inputs": [
        {
          "internalType": "uint256",
          "name": "",
          "type": "uint256"
        }
      ],
      "name": "voters",
      "outputs": [
        {
          "internalType": "address",
          "name": "",
          "type": "address"
        }
      ],
      "stateMutability": "view",
      "type": "function",
      "constant": true
    },
    {
      "inputs": [
        {
          "internalType": "string",
          "name": "_phase",
          "type": "string"
        }
      ],
      "name": "changePhase",
      "outputs": [],
      "stateMutability": "nonpayable",
      "type": "function"
    },
    {
      "inputs": [],
      "name": "getPhase",
      "outputs": [
        {
          "internalType": "string",
          "name": "",
          "type": "string"
        }
      ],
      "stateMutability": "view",
      "type": "function",
      "constant": true
    },
    {
      "inputs": [
        {
          "internalType": "string",
          "name": "_name",
          "type": "string"
        },
        {
          "internalType": "string",
          "name": "_party",
          "type": "string"
        },
        {
          "internalType": "string",
          "name": "_age",
          "type": "string"
        },
        {
          "internalType": "string",
          "name": "_description",
          "type": "string"
        },
        {
          "internalType": "string",
          "name": "_qualification",
          "type": "string"
        }
      ],
      "name": "addCandidate",
      "outputs": [],
      "stateMutability": "nonpayable",
      "type": "function"
    },
    {
      "inputs": [
        {
          "internalType": "uint256",
          "name": "_id",
          "type": "uint256"
        }
      ],
      "name": "removeCanditate",
      "outputs": [],
      "stateMutability": "nonpayable",
      "type": "function"
    },
    {
      "inputs": [
        {
          "internalType": "uint256",
          "name": "_id",
          "type": "uint256"
        }
      ],
      "name": "Vote",
      "outputs": [],
      "stateMutability": "nonpayable",
      "type": "function"
    },
    {
      "inputs": [],
      "name": "provideNewAccount",
      "outputs": [],
      "stateMutability": "nonpayable",
      "type": "function"
    },
    {
      "inputs": [],
      "name": "getAccountIndex",
      "outputs": [
        {
          "internalType": "uint256",
          "name": "",
          "type": "uint256"
        }
      ],
      "stateMutability": "view",
      "type": "function",
      "constant": true
    }
  ],
  "bytecode": "0x608060405260006006553480156200001657600080fd5b5033600460006101000a81548173ffffffffffffffffffffffffffffffffffffffff021916908373ffffffffffffffffffffffffffffffffffffffff1602179055506040518060400160405280600c81526020017f526567697374726174696f6e000000000000000000000000000000000000000081525060059080519060200190620000a5929190620000ac565b50620001c1565b828054620000ba906200015c565b90600052602060002090601f016020900481019282620000de57600085556200012a565b82601f10620000f957805160ff19168380011785556200012a565b828001600101855582156200012a579182015b82811115620001295782518255916020019190600101906200010c565b5b5090506200013991906200013d565b5090565b5b80821115620001585760008160009055506001016200013e565b5090565b600060028204905060018216806200017557607f821691505b602082108114156200018c576200018b62000192565b5b50919050565b7f4e487b7100000000000000000000000000000000000000000000000000000000600052602260045260246000fd5b61150a80620001d16000396000f3fe608060405234801561001057600080fd5b50600436106100ea5760003560e01c80638da5cb5b1161008c578063b1c9fe6e11610066578063b1c9fe6e1461022b578063da58c7d914610249578063dcd6a5cd14610279578063eced028014610295576100ea565b80638da5cb5b146101d3578063945ddfb9146101f1578063b0e8319b1461020d576100ea565b80632d35a8a2116100c85780632d35a8a2146101455780633477ee2e146101635780636f174b1414610199578063729a7da3146101b5576100ea565b806307240cfb146100ef5780630c34361f1461010b5780631bc5702214610115575b600080fd5b61010960048036038101906101049190610f9e565b6102b3565b005b6101136103bc565b005b61012f600480360381019061012a9190610e45565b6103d6565b60405161013c9190611108565b60405180910390f35b61014d6103f6565b60405161015a91906111a5565b60405180910390f35b61017d60048036038101906101789190610f9e565b6103fc565b60405161019097969594939291906111c0565b60405180910390f35b6101b360048036038101906101ae9190610e6e565b6106e6565b005b6101bd610790565b6040516101ca91906111a5565b60405180910390f35b6101db610796565b6040516101e891906110ed565b60405180910390f35b61020b60048036038101906102069190610eaf565b6107bc565b005b61021561095c565b60405161022291906111a5565b60405180910390f35b610233610972565b6040516102409190611123565b60405180910390f35b610263600480360381019061025e9190610f9e565b610a00565b60405161027091906110ed565b60405180910390f35b610293600480360381019061028e9190610f9e565b610a3f565b005b61029d610c3e565b6040516102aa9190611123565b60405180910390f35b600460009054906101000a900473ffffffffffffffffffffffffffffffffffffffff1673ffffffffffffffffffffffffffffffffffffffff163373ffffffffffffffffffffffffffffffffffffffff1614610343576040517f08c379a000000000000000000000000000000000000000000000000000000000815260040161033a90611185565b60405180910390fd5b6001600082815260200190815260200160002060008082016000905560018201600061036f9190610cd0565b60028201600061037f9190610cd0565b60038201600061038f9190610cd0565b60048201600061039f9190610cd0565b6005820160006103af9190610cd0565b6006820160009055505050565b600660008154809291906103cf906113bf565b9190505550565b60026020528060005260406000206000915054906101000a900460ff1681565b60005481565b60016020528060005260406000206000915090508060000154908060010180546104259061138d565b80601f01602080910402602001604051908101604052809291908181526020018280546104519061138d565b801561049e5780601f106104735761010080835404028352916020019161049e565b820191906000526020600020905b81548152906001019060200180831161048157829003601f168201915b5050505050908060020180546104b39061138d565b80601f01602080910402602001604051908101604052809291908181526020018280546104df9061138d565b801561052c5780601f106105015761010080835404028352916020019161052c565b820191906000526020600020905b81548152906001019060200180831161050f57829003601f168201915b5050505050908060030180546105419061138d565b80601f016020809104026020016040519081016040528092919081815260200182805461056d9061138d565b80156105ba5780601f1061058f576101008083540402835291602001916105ba565b820191906000526020600020905b81548152906001019060200180831161059d57829003601f168201915b5050505050908060040180546105cf9061138d565b80601f01602080910402602001604051908101604052809291908181526020018280546105fb9061138d565b80156106485780601f1061061d57610100808354040283529160200191610648565b820191906000526020600020905b81548152906001019060200180831161062b57829003601f168201915b50505050509080600501805461065d9061138d565b80601f01602080910402602001604051908101604052809291908181526020018280546106899061138d565b80156106d65780601f106106ab576101008083540402835291602001916106d6565b820191906000526020600020905b8154815290600101906020018083116106b957829003601f168201915b5050505050908060060154905087565b600460009054906101000a900473ffffffffffffffffffffffffffffffffffffffff1673ffffffffffffffffffffffffffffffffffffffff163373ffffffffffffffffffffffffffffffffffffffff1614610776576040517f08c379a000000000000000000000000000000000000000000000000000000000815260040161076d90611185565b60405180910390fd5b806005908051906020019061078c929190610d10565b5050565b60065481565b600460009054906101000a900473ffffffffffffffffffffffffffffffffffffffff1681565b600460009054906101000a900473ffffffffffffffffffffffffffffffffffffffff1673ffffffffffffffffffffffffffffffffffffffff163373ffffffffffffffffffffffffffffffffffffffff161461084c576040517f08c379a000000000000000000000000000000000000000000000000000000000815260040161084390611185565b60405180910390fd5b6040518060e001604052806000548152602001868152602001858152602001848152602001838152602001828152602001600081525060016000805481526020019081526020016000206000820151816000015560208201518160010190805190602001906108bc929190610d10565b5060408201518160020190805190602001906108d9929190610d10565b5060608201518160030190805190602001906108f6929190610d10565b506080820151816004019080519060200190610913929190610d10565b5060a0820151816005019080519060200190610930929190610d10565b5060c08201518160060155905050600080815480929190610950906113bf565b91905055505050505050565b6000600160065461096d91906112cf565b905090565b6005805461097f9061138d565b80601f01602080910402602001604051908101604052809291908181526020018280546109ab9061138d565b80156109f85780601f106109cd576101008083540402835291602001916109f8565b820191906000526020600020905b8154815290600101906020018083116109db57829003601f168201915b505050505081565b60038181548110610a1057600080fd5b906000526020600020016000915054906101000a900473ffffffffffffffffffffffffffffffffffffffff1681565b600260003373ffffffffffffffffffffffffffffffffffffffff1673ffffffffffffffffffffffffffffffffffffffff16815260200190815260200160002060009054906101000a900460ff1615610acc576040517f08c379a0000000000000000000000000000000000000000000000000000000008152600401610ac390611145565b60405180910390fd5b60008110158015610ade575060005481105b610b1d576040517f08c379a0000000000000000000000000000000000000000000000000000000008152600401610b1490611165565b60405180910390fd5b600160008281526020019081526020016000206006016000815480929190610b44906113bf565b91905055506003339080600181540180825580915050600190039060005260206000200160009091909190916101000a81548173ffffffffffffffffffffffffffffffffffffffff021916908373ffffffffffffffffffffffffffffffffffffffff1602179055506001600260003373ffffffffffffffffffffffffffffffffffffffff1673ffffffffffffffffffffffffffffffffffffffff16815260200190815260200160002060006101000a81548160ff0219169083151502179055507f559b765eb0812c9a8121fedbcf4cd1ab9c3fb498877e81d8347433eb5f4d617381604051610c3391906111a5565b60405180910390a150565b606060058054610c4d9061138d565b80601f0160208091040260200160405190810160405280929190818152602001828054610c799061138d565b8015610cc65780601f10610c9b57610100808354040283529160200191610cc6565b820191906000526020600020905b815481529060010190602001808311610ca957829003601f168201915b5050505050905090565b508054610cdc9061138d565b6000825580601f10610cee5750610d0d565b601f016020900490600052602060002090810190610d0c9190610d96565b5b50565b828054610d1c9061138d565b90600052602060002090601f016020900481019282610d3e5760008555610d85565b82601f10610d5757805160ff1916838001178555610d85565b82800160010185558215610d85579182015b82811115610d84578251825591602001919060010190610d69565b5b509050610d929190610d96565b5090565b5b80821115610daf576000816000905550600101610d97565b5090565b6000610dc6610dc184611283565b611252565b905082815260208101848484011115610dde57600080fd5b610de984828561134b565b509392505050565b600081359050610e00816114a6565b92915050565b600082601f830112610e1757600080fd5b8135610e27848260208601610db3565b91505092915050565b600081359050610e3f816114bd565b92915050565b600060208284031215610e5757600080fd5b6000610e6584828501610df1565b91505092915050565b600060208284031215610e8057600080fd5b600082013567ffffffffffffffff811115610e9a57600080fd5b610ea684828501610e06565b91505092915050565b600080600080600060a08688031215610ec757600080fd5b600086013567ffffffffffffffff811115610ee157600080fd5b610eed88828901610e06565b955050602086013567ffffffffffffffff811115610f0a57600080fd5b610f1688828901610e06565b945050604086013567ffffffffffffffff811115610f3357600080fd5b610f3f88828901610e06565b935050606086013567ffffffffffffffff811115610f5c57600080fd5b610f6888828901610e06565b925050608086013567ffffffffffffffff811115610f8557600080fd5b610f9188828901610e06565b9150509295509295909350565b600060208284031215610fb057600080fd5b6000610fbe84828501610e30565b91505092915050565b610fd081611303565b82525050565b610fdf81611315565b82525050565b6000610ff0826112b3565b610ffa81856112be565b935061100a81856020860161135a565b61101381611495565b840191505092915050565b600061102b6019836112be565b91507f596f752043616e204f6e6c7920566f7465204f6e6365212121000000000000006000830152602082019050919050565b600061106b6014836112be565b91507f496e76616c69642043616e6469646174652069640000000000000000000000006000830152602082019050919050565b60006110ab601d836112be565b91507f6f6e6c79206f776e65722063616e206164642063616e646964617465730000006000830152602082019050919050565b6110e781611341565b82525050565b60006020820190506111026000830184610fc7565b92915050565b600060208201905061111d6000830184610fd6565b92915050565b6000602082019050818103600083015261113d8184610fe5565b905092915050565b6000602082019050818103600083015261115e8161101e565b9050919050565b6000602082019050818103600083015261117e8161105e565b9050919050565b6000602082019050818103600083015261119e8161109e565b9050919050565b60006020820190506111ba60008301846110de565b92915050565b600060e0820190506111d5600083018a6110de565b81810360208301526111e78189610fe5565b905081810360408301526111fb8188610fe5565b9050818103606083015261120f8187610fe5565b905081810360808301526112238186610fe5565b905081810360a08301526112378185610fe5565b905061124660c08301846110de565b98975050505050505050565b6000604051905081810181811067ffffffffffffffff8211171561127957611278611466565b5b8060405250919050565b600067ffffffffffffffff82111561129e5761129d611466565b5b601f19601f8301169050602081019050919050565b600081519050919050565b600082825260208201905092915050565b60006112da82611341565b91506112e583611341565b9250828210156112f8576112f7611408565b5b828203905092915050565b600061130e82611321565b9050919050565b60008115159050919050565b600073ffffffffffffffffffffffffffffffffffffffff82169050919050565b6000819050919050565b82818337600083830152505050565b60005b8381101561137857808201518184015260208101905061135d565b83811115611387576000848401525b50505050565b600060028204905060018216806113a557607f821691505b602082108114156113b9576113b8611437565b5b50919050565b60006113ca82611341565b91507fffffffffffffffffffffffffffffffffffffffffffffffffffffffffffffffff8214156113fd576113fc611408565b5b600182019050919050565b7f4e487b7100000000000000000000000000000000000000000000000000000000600052601160045260246000fd5b7f4e487b7100000000000000000000000000000000000000000000000000000000600052602260045260246000fd5b7f4e487b7100000000000000000000000000000000000000000000000000000000600052604160045260246000fd5b6000601f19601f8301169050919050565b6114af81611303565b81146114ba57600080fd5b50565b6114c681611341565b81146114d157600080fd5b5056fea2646970667358221220f483998b348f37e84a4898c86f4789cb7fbb9fe29fa6af868514ed464674179a64736f6c63430008000033",
  "immutableReferences": {},
  "source": "// SPDX-License-Identifier: MIT\r\npragma solidity ^0.8.0;\r\ncontract Election{\r\n        \r\n    struct Candidate{\r\n        uint id;\r\n        string name;\r\n        string party;\r\n        string age;\r\n        string description;\r\n        string qualification;\r\n        uint votecount;\r\n    }   \r\n    \r\n    uint public candidatesCount;\r\n    mapping(uint=>Candidate) public candidates;\r\n    mapping(address=>bool) public votedornot;\r\n    address[] public voters;\r\n    address public owner;\r\n    string public phase;\r\n    uint public accountindex = 0;\r\n    \r\n    event electionUpdates(uint _id);\r\n    \r\n    constructor(){\r\n         owner = msg.sender;\r\n         phase = 'Registration';\r\n    }\r\n    \r\n    modifier ownerModifier{\r\n        require(msg.sender == owner,\"only owner can add candidates\");\r\n        _;\r\n    }\r\n\r\n    // function changePhase() public ownerModifier{\r\n    //     if( keccak256(abi.encodePacked((phase))) == keccak256(abi.encodePacked('Registration'))    ){\r\n    //         phase = 'Voting';\r\n    //     }else{\r\n    //         phase = 'Registration';\r\n    //     }\r\n    //     if(keccak256(abi.encodePacked((phase))) == keccak256(abi.encodePacked('Registration'))){\r\n    //         phase = 'Voting';\r\n    //     }else if( keccak256(abi.encodePacked((phase))) == keccak256(abi.encodePacked('Voting'))){\r\n    //         phase = 'Ended';\r\n    //     }else if( keccak256(abi.encodePacked((phase))) == keccak256(abi.encodePacked('Ended'))){\r\n    //         phase = 'Registration';\r\n    //     }\r\n    // }\r\n\r\n    function changePhase(string memory _phase ) public ownerModifier{\r\n        phase = _phase;\r\n    }\r\n    function getPhase() public view returns(string memory){\r\n        return phase;\r\n    }\r\n\r\n    function addCandidate(string memory _name ,string memory _party,string memory _age ,string memory _description, string memory _qualification) public ownerModifier{\r\n        candidates[candidatesCount] = Candidate(candidatesCount,_name,_party,_age,_description,_qualification,0);\r\n        candidatesCount++;\r\n    }\r\n    \r\n    function removeCanditate(uint _id) public ownerModifier{\r\n        delete candidates[_id];\r\n    }\r\n    \r\n    function Vote(uint _id) public{\r\n        require(!votedornot[msg.sender],\"You Can Only Vote Once!!!\");\r\n        require(_id>=0 && _id<candidatesCount,\"Invalid Candidate id\");\r\n        candidates[_id].votecount++;\r\n        voters.push(msg.sender);\r\n        votedornot[msg.sender]=true;\r\n        emit electionUpdates(_id);\r\n    }\r\n\r\n    function provideNewAccount() public{\r\n        accountindex++;\r\n    }\r\n\r\n   function getAccountIndex() public view returns(uint){\r\n        return (accountindex-1);\r\n    }\r\n}",
  "sourcePath": "C:/Users/jyots/design-project-5sem/contracts/Election.sol",
  "compiler": {
    "name": "solc",
    "version": "0.8.0+commit.c7dfd78e.Emscripten.clang"
  },
  "schemaVersion": "3.4.1",
  "updatedAt": "2021-11-16T03:18:06.834Z",
  "networkType": "ethereum",
  "devdoc": {
    "kind": "dev",
    "methods": {},
    "version": 1
  },
  "userdoc": {
    "kind": "user",
    "methods": {},
    "version": 1
  }
}