{
  "contractName": "Election",
  "abi": [
    {
      "inputs": [],
      "stateMutability": "nonpayable",
      "type": "constructor"
    },
    {
      "anonymous": false,
      "inputs": [
        {
          "indexed": false,
          "internalType": "uint256",
          "name": "_id",
          "type": "uint256"
        }
      ],
      "name": "electionUpdates",
      "type": "event"
    },
    {
      "inputs": [],
      "name": "accountindex",
      "outputs": [
        {
          "internalType": "uint256",
          "name": "",
          "type": "uint256"
        }
      ],
      "stateMutability": "view",
      "type": "function",
      "constant": true
    },
    {
      "inputs": [
        {
          "internalType": "uint256",
          "name": "",
          "type": "uint256"
        }
      ],
      "name": "candidates",
      "outputs": [
        {
          "internalType": "uint256",
          "name": "id",
          "type": "uint256"
        },
        {
          "internalType": "string",
          "name": "name",
          "type": "string"
        },
        {
          "internalType": "string",
          "name": "party",
          "type": "string"
        },
        {
          "internalType": "string",
          "name": "age",
          "type": "string"
        },
        {
          "internalType": "string",
          "name": "description",
          "type": "string"
        },
        {
          "internalType": "string",
          "name": "qualification",
          "type": "string"
        },
        {
          "internalType": "uint256",
          "name": "votecount",
          "type": "uint256"
        },
        {
          "internalType": "string",
          "name": "ipfshash",
          "type": "string"
        }
      ],
      "stateMutability": "view",
      "type": "function",
      "constant": true
    },
    {
      "inputs": [],
      "name": "candidatesCount",
      "outputs": [
        {
          "internalType": "uint256",
          "name": "",
          "type": "uint256"
        }
      ],
      "stateMutability": "view",
      "type": "function",
      "constant": true
    },
    {
      "inputs": [],
      "name": "owner",
      "outputs": [
        {
          "internalType": "address",
          "name": "",
          "type": "address"
        }
      ],
      "stateMutability": "view",
      "type": "function",
      "constant": true
    },
    {
      "inputs": [],
      "name": "phase",
      "outputs": [
        {
          "internalType": "string",
          "name": "",
          "type": "string"
        }
      ],
      "stateMutability": "view",
      "type": "function",
      "constant": true
    },
    {
      "inputs": [
        {
          "internalType": "address",
          "name": "",
          "type": "address"
        }
      ],
      "name": "votedornot",
      "outputs": [
        {
          "internalType": "bool",
          "name": "",
          "type": "bool"
        }
      ],
      "stateMutability": "view",
      "type": "function",
      "constant": true
    },
    {
      "inputs": [
        {
          "internalType": "uint256",
          "name": "",
          "type": "uint256"
        }
      ],
      "name": "voters",
      "outputs": [
        {
          "internalType": "address",
          "name": "",
          "type": "address"
        }
      ],
      "stateMutability": "view",
      "type": "function",
      "constant": true
    },
    {
      "inputs": [
        {
          "internalType": "string",
          "name": "_phase",
          "type": "string"
        }
      ],
      "name": "changePhase",
      "outputs": [],
      "stateMutability": "nonpayable",
      "type": "function"
    },
    {
      "inputs": [],
      "name": "getPhase",
      "outputs": [
        {
          "internalType": "string",
          "name": "",
          "type": "string"
        }
      ],
      "stateMutability": "view",
      "type": "function",
      "constant": true
    },
    {
      "inputs": [
        {
          "internalType": "string",
          "name": "_name",
          "type": "string"
        },
        {
          "internalType": "string",
          "name": "_party",
          "type": "string"
        },
        {
          "internalType": "string",
          "name": "_age",
          "type": "string"
        },
        {
          "internalType": "string",
          "name": "_description",
          "type": "string"
        },
        {
          "internalType": "string",
          "name": "_qualification",
          "type": "string"
        },
        {
          "internalType": "string",
          "name": "_ipfs",
          "type": "string"
        }
      ],
      "name": "addCandidate",
      "outputs": [],
      "stateMutability": "nonpayable",
      "type": "function"
    },
    {
      "inputs": [
        {
          "internalType": "uint256",
          "name": "_id",
          "type": "uint256"
        }
      ],
      "name": "removeCanditate",
      "outputs": [],
      "stateMutability": "nonpayable",
      "type": "function"
    },
    {
      "inputs": [
        {
          "internalType": "uint256",
          "name": "_id",
          "type": "uint256"
        }
      ],
      "name": "Vote",
      "outputs": [],
      "stateMutability": "nonpayable",
      "type": "function"
    },
    {
      "inputs": [],
      "name": "provideNewAccount",
      "outputs": [],
      "stateMutability": "nonpayable",
      "type": "function"
    },
    {
      "inputs": [],
      "name": "getAccountIndex",
      "outputs": [
        {
          "internalType": "uint256",
          "name": "",
          "type": "uint256"
        }
      ],
      "stateMutability": "view",
      "type": "function",
      "constant": true
    }
  ],
  "bytecode": "0x608060405260006006553480156200001657600080fd5b5033600460006101000a81548173ffffffffffffffffffffffffffffffffffffffff021916908373ffffffffffffffffffffffffffffffffffffffff1602179055506040518060400160405280600c81526020017f526567697374726174696f6e000000000000000000000000000000000000000081525060059080519060200190620000a5929190620000ac565b50620001c1565b828054620000ba906200015c565b90600052602060002090601f016020900481019282620000de57600085556200012a565b82601f10620000f957805160ff19168380011785556200012a565b828001600101855582156200012a579182015b82811115620001295782518255916020019190600101906200010c565b5b5090506200013991906200013d565b5090565b5b80821115620001585760008160009055506001016200013e565b5090565b600060028204905060018216806200017557607f821691505b602082108114156200018c576200018b62000192565b5b50919050565b7f4e487b7100000000000000000000000000000000000000000000000000000000600052602260045260246000fd5b61160e80620001d16000396000f3fe608060405234801561001057600080fd5b50600436106100ea5760003560e01c80638da5cb5b1161008c578063bbdac32311610066578063bbdac3231461022e578063da58c7d91461024a578063dcd6a5cd1461027a578063eced028014610296576100ea565b80638da5cb5b146101d4578063b0e8319b146101f2578063b1c9fe6e14610210576100ea565b80632d35a8a2116100c85780632d35a8a2146101455780633477ee2e146101635780636f174b141461019a578063729a7da3146101b6576100ea565b806307240cfb146100ef5780630c34361f1461010b5780631bc5702214610115575b600080fd5b6101096004803603810190610104919061108c565b6102b4565b005b6101136103cd565b005b61012f600480360381019061012a9190610f09565b6103e7565b60405161013c91906111f6565b60405180910390f35b61014d610407565b60405161015a9190611293565b60405180910390f35b61017d6004803603810190610178919061108c565b61040d565b6040516101919897969594939291906112ae565b60405180910390f35b6101b460048036038101906101af9190610f32565b610785565b005b6101be61082f565b6040516101cb9190611293565b60405180910390f35b6101dc610835565b6040516101e991906111db565b60405180910390f35b6101fa61085b565b6040516102079190611293565b60405180910390f35b610218610871565b6040516102259190611211565b60405180910390f35b61024860048036038101906102439190610f73565b6108ff565b005b610264600480360381019061025f919061108c565b610ac4565b60405161027191906111db565b60405180910390f35b610294600480360381019061028f919061108c565b610b03565b005b61029e610d02565b6040516102ab9190611211565b60405180910390f35b600460009054906101000a900473ffffffffffffffffffffffffffffffffffffffff1673ffffffffffffffffffffffffffffffffffffffff163373ffffffffffffffffffffffffffffffffffffffff1614610344576040517f08c379a000000000000000000000000000000000000000000000000000000000815260040161033b90611273565b60405180910390fd5b600160008281526020019081526020016000206000808201600090556001820160006103709190610d94565b6002820160006103809190610d94565b6003820160006103909190610d94565b6004820160006103a09190610d94565b6005820160006103b09190610d94565b60068201600090556007820160006103c89190610d94565b505050565b600660008154809291906103e0906114c3565b9190505550565b60026020528060005260406000206000915054906101000a900460ff1681565b60005481565b600160205280600052604060002060009150905080600001549080600101805461043690611491565b80601f016020809104026020016040519081016040528092919081815260200182805461046290611491565b80156104af5780601f10610484576101008083540402835291602001916104af565b820191906000526020600020905b81548152906001019060200180831161049257829003601f168201915b5050505050908060020180546104c490611491565b80601f01602080910402602001604051908101604052809291908181526020018280546104f090611491565b801561053d5780601f106105125761010080835404028352916020019161053d565b820191906000526020600020905b81548152906001019060200180831161052057829003601f168201915b50505050509080600301805461055290611491565b80601f016020809104026020016040519081016040528092919081815260200182805461057e90611491565b80156105cb5780601f106105a0576101008083540402835291602001916105cb565b820191906000526020600020905b8154815290600101906020018083116105ae57829003601f168201915b5050505050908060040180546105e090611491565b80601f016020809104026020016040519081016040528092919081815260200182805461060c90611491565b80156106595780601f1061062e57610100808354040283529160200191610659565b820191906000526020600020905b81548152906001019060200180831161063c57829003601f168201915b50505050509080600501805461066e90611491565b80601f016020809104026020016040519081016040528092919081815260200182805461069a90611491565b80156106e75780601f106106bc576101008083540402835291602001916106e7565b820191906000526020600020905b8154815290600101906020018083116106ca57829003601f168201915b50505050509080600601549080600701805461070290611491565b80601f016020809104026020016040519081016040528092919081815260200182805461072e90611491565b801561077b5780601f106107505761010080835404028352916020019161077b565b820191906000526020600020905b81548152906001019060200180831161075e57829003601f168201915b5050505050905088565b600460009054906101000a900473ffffffffffffffffffffffffffffffffffffffff1673ffffffffffffffffffffffffffffffffffffffff163373ffffffffffffffffffffffffffffffffffffffff1614610815576040517f08c379a000000000000000000000000000000000000000000000000000000000815260040161080c90611273565b60405180910390fd5b806005908051906020019061082b929190610dd4565b5050565b60065481565b600460009054906101000a900473ffffffffffffffffffffffffffffffffffffffff1681565b6000600160065461086c91906113d3565b905090565b6005805461087e90611491565b80601f01602080910402602001604051908101604052809291908181526020018280546108aa90611491565b80156108f75780601f106108cc576101008083540402835291602001916108f7565b820191906000526020600020905b8154815290600101906020018083116108da57829003601f168201915b505050505081565b600460009054906101000a900473ffffffffffffffffffffffffffffffffffffffff1673ffffffffffffffffffffffffffffffffffffffff163373ffffffffffffffffffffffffffffffffffffffff161461098f576040517f08c379a000000000000000000000000000000000000000000000000000000000815260040161098690611273565b60405180910390fd5b604051806101000160405280600054815260200187815260200186815260200185815260200184815260200183815260200160008152602001828152506001600080548152602001908152602001600020600082015181600001556020820151816001019080519060200190610a06929190610dd4565b506040820151816002019080519060200190610a23929190610dd4565b506060820151816003019080519060200190610a40929190610dd4565b506080820151816004019080519060200190610a5d929190610dd4565b5060a0820151816005019080519060200190610a7a929190610dd4565b5060c0820151816006015560e0820151816007019080519060200190610aa1929190610dd4565b50905050600080815480929190610ab7906114c3565b9190505550505050505050565b60038181548110610ad457600080fd5b906000526020600020016000915054906101000a900473ffffffffffffffffffffffffffffffffffffffff1681565b600260003373ffffffffffffffffffffffffffffffffffffffff1673ffffffffffffffffffffffffffffffffffffffff16815260200190815260200160002060009054906101000a900460ff1615610b90576040517f08c379a0000000000000000000000000000000000000000000000000000000008152600401610b8790611233565b60405180910390fd5b60008110158015610ba2575060005481105b610be1576040517f08c379a0000000000000000000000000000000000000000000000000000000008152600401610bd890611253565b60405180910390fd5b600160008281526020019081526020016000206006016000815480929190610c08906114c3565b91905055506003339080600181540180825580915050600190039060005260206000200160009091909190916101000a81548173ffffffffffffffffffffffffffffffffffffffff021916908373ffffffffffffffffffffffffffffffffffffffff1602179055506001600260003373ffffffffffffffffffffffffffffffffffffffff1673ffffffffffffffffffffffffffffffffffffffff16815260200190815260200160002060006101000a81548160ff0219169083151502179055507f559b765eb0812c9a8121fedbcf4cd1ab9c3fb498877e81d8347433eb5f4d617381604051610cf79190611293565b60405180910390a150565b606060058054610d1190611491565b80601f0160208091040260200160405190810160405280929190818152602001828054610d3d90611491565b8015610d8a5780601f10610d5f57610100808354040283529160200191610d8a565b820191906000526020600020905b815481529060010190602001808311610d6d57829003601f168201915b5050505050905090565b508054610da090611491565b6000825580601f10610db25750610dd1565b601f016020900490600052602060002090810190610dd09190610e5a565b5b50565b828054610de090611491565b90600052602060002090601f016020900481019282610e025760008555610e49565b82601f10610e1b57805160ff1916838001178555610e49565b82800160010185558215610e49579182015b82811115610e48578251825591602001919060010190610e2d565b5b509050610e569190610e5a565b5090565b5b80821115610e73576000816000905550600101610e5b565b5090565b6000610e8a610e8584611387565b611356565b905082815260208101848484011115610ea257600080fd5b610ead84828561144f565b509392505050565b600081359050610ec4816115aa565b92915050565b600082601f830112610edb57600080fd5b8135610eeb848260208601610e77565b91505092915050565b600081359050610f03816115c1565b92915050565b600060208284031215610f1b57600080fd5b6000610f2984828501610eb5565b91505092915050565b600060208284031215610f4457600080fd5b600082013567ffffffffffffffff811115610f5e57600080fd5b610f6a84828501610eca565b91505092915050565b60008060008060008060c08789031215610f8c57600080fd5b600087013567ffffffffffffffff811115610fa657600080fd5b610fb289828a01610eca565b965050602087013567ffffffffffffffff811115610fcf57600080fd5b610fdb89828a01610eca565b955050604087013567ffffffffffffffff811115610ff857600080fd5b61100489828a01610eca565b945050606087013567ffffffffffffffff81111561102157600080fd5b61102d89828a01610eca565b935050608087013567ffffffffffffffff81111561104a57600080fd5b61105689828a01610eca565b92505060a087013567ffffffffffffffff81111561107357600080fd5b61107f89828a01610eca565b9150509295509295509295565b60006020828403121561109e57600080fd5b60006110ac84828501610ef4565b91505092915050565b6110be81611407565b82525050565b6110cd81611419565b82525050565b60006110de826113b7565b6110e881856113c2565b93506110f881856020860161145e565b61110181611599565b840191505092915050565b60006111196019836113c2565b91507f596f752043616e204f6e6c7920566f7465204f6e6365212121000000000000006000830152602082019050919050565b60006111596014836113c2565b91507f496e76616c69642043616e6469646174652069640000000000000000000000006000830152602082019050919050565b6000611199601d836113c2565b91507f6f6e6c79206f776e65722063616e206164642063616e646964617465730000006000830152602082019050919050565b6111d581611445565b82525050565b60006020820190506111f060008301846110b5565b92915050565b600060208201905061120b60008301846110c4565b92915050565b6000602082019050818103600083015261122b81846110d3565b905092915050565b6000602082019050818103600083015261124c8161110c565b9050919050565b6000602082019050818103600083015261126c8161114c565b9050919050565b6000602082019050818103600083015261128c8161118c565b9050919050565b60006020820190506112a860008301846111cc565b92915050565b6000610100820190506112c4600083018b6111cc565b81810360208301526112d6818a6110d3565b905081810360408301526112ea81896110d3565b905081810360608301526112fe81886110d3565b9050818103608083015261131281876110d3565b905081810360a083015261132681866110d3565b905061133560c08301856111cc565b81810360e083015261134781846110d3565b90509998505050505050505050565b6000604051905081810181811067ffffffffffffffff8211171561137d5761137c61156a565b5b8060405250919050565b600067ffffffffffffffff8211156113a2576113a161156a565b5b601f19601f8301169050602081019050919050565b600081519050919050565b600082825260208201905092915050565b60006113de82611445565b91506113e983611445565b9250828210156113fc576113fb61150c565b5b828203905092915050565b600061141282611425565b9050919050565b60008115159050919050565b600073ffffffffffffffffffffffffffffffffffffffff82169050919050565b6000819050919050565b82818337600083830152505050565b60005b8381101561147c578082015181840152602081019050611461565b8381111561148b576000848401525b50505050565b600060028204905060018216806114a957607f821691505b602082108114156114bd576114bc61153b565b5b50919050565b60006114ce82611445565b91507fffffffffffffffffffffffffffffffffffffffffffffffffffffffffffffffff8214156115015761150061150c565b5b600182019050919050565b7f4e487b7100000000000000000000000000000000000000000000000000000000600052601160045260246000fd5b7f4e487b7100000000000000000000000000000000000000000000000000000000600052602260045260246000fd5b7f4e487b7100000000000000000000000000000000000000000000000000000000600052604160045260246000fd5b6000601f19601f8301169050919050565b6115b381611407565b81146115be57600080fd5b50565b6115ca81611445565b81146115d557600080fd5b5056fea26469706673582212207d1078f5b08b1c2fb0f58c10903c48c0fdc6e04da198380ac67ff211453310ed64736f6c63430008000033",
  "immutableReferences": {},
  "source": "// SPDX-License-Identifier: MIT\r\npragma solidity ^0.8.0;\r\ncontract Election{\r\n        \r\n    struct Candidate{\r\n        uint id;\r\n        string name;\r\n        string party;\r\n        string age;\r\n        string description;\r\n        string qualification;\r\n        uint votecount;\r\n        string ipfshash;\r\n    }   \r\n    \r\n    uint public candidatesCount;\r\n    mapping(uint=>Candidate) public candidates;\r\n    mapping(address=>bool) public votedornot;\r\n    address[] public voters;\r\n    address public owner;\r\n    string public phase;\r\n    uint public accountindex = 0;\r\n    \r\n    event electionUpdates(uint _id);\r\n    \r\n    constructor(){\r\n         owner = msg.sender;\r\n         phase = 'Registration';\r\n    }\r\n    \r\n    modifier ownerModifier{\r\n        require(msg.sender == owner,\"only owner can add candidates\");\r\n        _;\r\n    }\r\n\r\n    // function changePhase() public ownerModifier{\r\n    //     if( keccak256(abi.encodePacked((phase))) == keccak256(abi.encodePacked('Registration'))    ){\r\n    //         phase = 'Voting';\r\n    //     }else{\r\n    //         phase = 'Registration';\r\n    //     }\r\n    //     if(keccak256(abi.encodePacked((phase))) == keccak256(abi.encodePacked('Registration'))){\r\n    //         phase = 'Voting';\r\n    //     }else if( keccak256(abi.encodePacked((phase))) == keccak256(abi.encodePacked('Voting'))){\r\n    //         phase = 'Ended';\r\n    //     }else if( keccak256(abi.encodePacked((phase))) == keccak256(abi.encodePacked('Ended'))){\r\n    //         phase = 'Registration';\r\n    //     }\r\n    // }\r\n\r\n    function changePhase(string memory _phase ) public ownerModifier{\r\n        phase = _phase;\r\n    }\r\n    function getPhase() public view returns(string memory){\r\n        return phase;\r\n    }\r\n\r\n    function addCandidate(string memory _name ,string memory _party,string memory _age ,string memory _description, string memory _qualification,string memory _ipfs) public ownerModifier{\r\n        candidates[candidatesCount] = Candidate(candidatesCount,_name,_party,_age,_description,_qualification,0,_ipfs);\r\n        candidatesCount++;\r\n    }\r\n    \r\n    function removeCanditate(uint _id) public ownerModifier{\r\n        delete candidates[_id];\r\n    }\r\n    \r\n    function Vote(uint _id) public{\r\n        require(!votedornot[msg.sender],\"You Can Only Vote Once!!!\");\r\n        require(_id>=0 && _id<candidatesCount,\"Invalid Candidate id\");\r\n        candidates[_id].votecount++;\r\n        voters.push(msg.sender);\r\n        votedornot[msg.sender]=true;\r\n        emit electionUpdates(_id);\r\n    }\r\n\r\n    function provideNewAccount() public{\r\n        accountindex++;\r\n    }\r\n\r\n   function getAccountIndex() public view returns(uint){\r\n        return (accountindex-1);\r\n    }\r\n}",
  "sourcePath": "C:/Users/jyots/design-project-5sem/contracts/Election.sol",
  "compiler": {
    "name": "solc",
    "version": "0.8.0+commit.c7dfd78e.Emscripten.clang"
  },
  "schemaVersion": "3.4.1",
  "updatedAt": "2021-11-29T17:35:24.086Z",
  "networkType": "ethereum",
  "devdoc": {
    "kind": "dev",
    "methods": {},
    "version": 1
  },
  "userdoc": {
    "kind": "user",
    "methods": {},
    "version": 1
  }
}